:10040F0011212020202020202020202020202020EB
:10041F00202000111020202020202020202020200C
:06042F0020202020200027
:07053C007FFA1205437FFA6C
:06054300EFC313FFDFFE11
:01054900228F
:0F052D00AE071EEE600812053C12053C80F4225A
:1004F500AD077F0512052DC2A5C2A3C2A400D2A5D2
:050505008D80C2A5225B
:1004C700AD077F0512052DC2A5D2A3C2A400D2A5F0
:0704D7008D80C2A5C2A32223
:04047700AE07AB051C
:10047B00EEC39410EE400524B0FC80032480FCAF47
:09048B00041204F5AF030204C7DA
:060384008B338A34893539
:10038A00EFC454F0F536E4F537AF360536AB33AA89
:10039A0034A935853782758300120268FD12047705
:0903AA000537E537C3941040E06B
:0103B3002227
:100436007F0F12052D7F381204F57F381204F57FE1
:10044600381204F57F061204F57F0C1204F57F01BD
:030456000204F5A8
:1003B400E5082430F512E5092430F514E50A243063
:1003C400F51575132E7516567B007A007910E4FF27
:0E03D4001203847B007A0079217F01020384EA
:1004AF00EFD394004011E4FDFC0DBD00010CED6491
:0704BF007D4C70F51F80E980
:0104C6002213
:0B054A00D2A0D2A100C2A000C2A122DA
:08055500C2A0D2A100D2A02235
:10050A00EF6004C2A08002D2A000D2A100C2A1D290
:03051A00A000221C
:0304DE0012049471
:1004E100D2A000D2A10030A007C2A1120555C3229B
:0404F100C2A1D322AF
:10049400E4FEEF30E704D2A08002C2A000D2A1EFB4
:0A04A40025E0FF00C2A10EBE08E82B
:0104AE00222B
:10045900E4FBD2A100ED25E0FDEC33FC30A0034321
:0D0469000501C2A1000BBB08E9AF05AE0400
:010476002263
:1003E20012054A7F901204DE7F011204DE120555C7
:1003F20012054A7F911204941204E1120459AD07C6
:0C040200AC06E4FF12050A120555AF0518
:01040E0022CB
:10051D00D2A6E4F580C2A6D2A7F580C2A7C2A422B6
:10032F0012043612051D1203E28F32AC32E41201B1
:10033F00B3E4FBFA79FA7843120003E4FBFA79800D
:10034F00784312010C1201E78E328F33E53275F0CC
:10035F006484AFF0EF75F00A8485F00AEF75F00A48
:10036F0084F509E53275F06484F5081203B47F282B
:05037F001204AF80B183
:10000300EC4D6011E8497017ED33EC3304600DE4F7
:10001300FCFFFEFD22E933E8330470F802025312B9
:10002300021E58046009E4CC2481500628500902BA
:10003300025D28400302025AC0E0EB4A7044B980D3
:1000430006D0E0FB020249EF4E701CBD8008EBFFB7
:10005300EAFEE9FD80EBE98DF0A4FEE5F00200EC99
:10006300E9CDF9EAFEEBFFEF89F0A4FCE5F0CE89D8
:10007300F0A42EFFE435F0CD89F0A42DFEE435F095
:100083008067EF4E7005BD80D780C3EF8BF0A4ACC3
:10009300F0EE8BF0A42CFCE435F0F8EF8AF0A42CFE
:1000A300E5F038FCE433CB8DF0A42CFCE5F03BF811
:1000B300EE8AF0A42CFCE5F038F8E433CF89F0A401
:1000C3002CFCE5F038CF3400CE89F0A42FFFE5F007
:1000D3003EFEE433C98DF0A42EFEE5F039CD8AF05F
:1000E300A42FFFE5F03EFEE43DFD33D0E0FB5007D7
:1000F3000BBB000F02025DEC2CFCEF33FFEE33FE73
:06010300ED33FD020235A0
:1001090002025DEC5D046005E859047003020253C4
:1001190012021E580460F6EC4860F2EC7004FDFE11
:10012900FF22C860DB2481C85009C39860025006C9
:1001390002025A9850CAF582E9294B4A7005AB82E6
:1001490002024975F0007C1A7880C3EF9BEE9AEDA4
:1001590099400DC3EF9BFFEE9AFEED99FDE842F041
:10016900DC23ACF0D0E0FFD0E0FED0E0FDAB822094
:10017900E7101BEB60BAEC2CFCEF33FFEE33FEED1E
:1001890033FD020235E803F830E705C0F075F000E9
:10019900EF2FFFEE33FEED33FD40B830E7C280AA02
:1001A90075F020800E75F010800575F0087D007ED1
:1001B900007F003392D530D503120295EC334010FD
:1001C900EF33FFEE33FEED33FDEC33FCD5F0ED22DA
:0E01D900E5F0247EA2D513CC92E7CDCEFF2216
:1001E700EDD2E7CD33EC3392D524814006E4FFFE10
:1001F700FDFC22FCE4CFCECDCC24E0501174FF806F
:10020700EDC3CC13CCCD13CDCE13CECF13CF04700B
:07021700F030D5DE02029574
:10021E00E9D2E7C933E833F892D5EDD2E7CD33EC26
:07022E0033FC5002B2D5229F
:10023500EC30E7100FBF000C0EBE00080DBD00042A
:100245000BEB6014A2D5EB13FCED92E7FD2274FFD6
:10025500FCFDFEFF22E480F8A2D574FF13FC7D802F
:03026500E480EF43
:030000000202A356
:0C02A300787FE4F6D8FD7581370202EA8E
:10026800BB010CE58229F582E5833AF583E022504B
:1002780006E92582F8E622BBFE06E92582F8E22295
:0D028800E58229F582E5833AF583E49322AF
:0E029500C3E49FFFE49EFEE49DFDE49CFC227A
:1002AF0002032FE493A3F8E493A34003F68001F233
:1002BF0008DFF48029E493A3F85407240CC8C33350
:1002CF00C4540F4420C8834004F456800146F6DF1F
:1002DF00E4800B010204081020408090040FE47E9C
:1002EF00019360BCA3FF543F30E509541FFEE49314
:1002FF00A360010ECF54C025E060A840B8E493A3DB
:10030F00FAE493A3F8E493A3C8C582C8CAC583CA05
:10031F00F0A3C8C582C8CAC583CADFE9DEE780BEBD
:0104350000C6
:00000001FF
